:02000004080AE8
:1000000000000A08E8240A080000060006000501AE
:0800100004029A080000000040
:0400180068200A084A
:10001C0009480A4908B5884205D0094A824202D0EB
:10002C00121A01F03BFB0748074A0021121A01F093
:10003C0043FB064808BD00BF00000020EC230A0863
:10004C00D4000020D800002089060020890600205A
:10005C0070B500F0FDFC0025054E064CA41BA40851
:10006C00A54200D170BD56F8043B98470135F7E71F
:10007C00C0230A08E0230A0800F022B808B500F0F3
:10008C0033F8BDE8084000F09BBC00F069BA00F002
:10009C006FBA0078B0FA80F0400970470123037002
:1000AC0070470EB403B503AB53F8042B0021019336
:1000BC0000F067FB02B05DF804EB03B07047000082
:1000CC0008B5084B0121188800F0E8FF012000F06A
:1000DC0018FC00F0BFFDBDE808404FF4165100F0CD
:1000EC009FBD00BF0000002030B51D4C1D4B226889
:1000FC00188812F0010585B02AD1012100F0DFFF2C
:10010C002A462946FF2000F00CFC236801332360AB
:10011C0000F0A0FD044600F0D6FB054600F0D3FB32
:10012C000246C317684600F079FB2A46009B0E492D
:10013C002046FFF7B6FF684600F074FA00F08AFD1F
:10014C0000F0F6FA4FF47A7000F0D8FB05B030BD31
:10015C00002100F0B4FF0022FF211046D3E700BFBE
:10016C00D8000020000000207C200A08002101207B
:10017C0000F052B908B5024B1B689B68019308BD8F
:10018C00B001060808B5024B1B68DB68019308BD7B
:10019C00B001060808B5024B1B681B69019308BD2A
:1001AC00B001060808B5024B1B685B68019308BDDB
:1001BC009C01060808B5024B1B685B69019308BDDE
:1001CC009C01060808B5024B1B689B6D019308BD8A
:1001DC009C01060808B5024B1B685B6E019308BDB9
:1001EC009C01060808B5024B1B685B6C019308BDAB
:1001FC00D001060808B5024B1B689B6C019308BD27
:10020C00D001060808B5024B1B689B69019308BD19
:10021C00C401060808B5024B1B685B6A019308BD54
:10022C00C401060808B5024B1B689B6A019308BD04
:10023C00C401060808B5024B1B68DB6A019308BDB4
:10024C00C401060808B5024B1B681B6B019308BD63
:10025C00C401060808B5024B1B685B6B019308BD13
:10026C00C401060808B5024B1B689B6B019308BDC3
:10027C00C401060808B5024B1B681B6C019308BD32
:10028C00C401060808B5024B1B681B6E019308BD20
:10029C00AC01060808B5024B1B685B6E019308BDE8
:1002AC00AC01060808B5024B1B689B6E019308BD98
:1002BC00AC01060808B5024B1B68DB6E019308BD48
:1002CC00AC01060808B5024B1B681B6F019308BDF7
:1002DC00AC01060808B5024B1B685B6F019308BDA7
:1002EC00AC01060808B5034B1B68D3F880300193AA
:1002FC0008BD0000AC01060808B5024B1B68DB69A1
:10030C00019308BDB401060808B5024B1B681B6AB3
:10031C00019308BDB401060808B5024B1B681B68A5
:10032C00019308BDD801060808B5024B1B685B6831
:10033C00019308BDD801060808B5024B1B681B6960
:10034C00019308BDD801060808B5024B1B685B6910
:10035C00019308BDD801060808B5024B1B689B69C0
:10036C00019308BDD801060808B5024B1B68DB6970
:10037C00019308BDD801060808B5024B1B681B6A1F
:10038C00019308BDD801060808B5024B1B689B6C8D
:10039C00019308BDC001060808B5024B1B685B68D9
:1003AC00019308BDA801020808B5024B1B689B68A5
:1003BC00019308BDA801020808B5024B1B68DB6855
:1003CC00019308BDA801020808B5024B1B689B6984
:1003DC00019308BDA801020808B5024B1B68DB6934
:1003EC00019308BDA801020808B5024B1B681B68E5
:1003FC00019308BDA401060808B5024B1B685B6895
:10040C00019308BDA401060808B5024B1B685B6983
:10041C00019308BDA401060808B5024B1B68DB6AF2
:10042C00019308BDA401060808B5024B1B689B6D1F
:10043C00019308BDA401060808B5034B1B68D3F84B
:10044C009030019308BD0000A401060808B5034BC9
:10045C001B68D3F89C30019308BD0000A40106086A
:10046C0008B5024B1B685B68019308BDC801060800
:10047C0008B5024B1B689B68019308BDC8010608B0
:10048C0008B5024B1B68DB68019308BDC801060860
:10049C0008B5024B1B681B69019308BDC80106080F
:1004AC0008B5024B1B685B69019308BDC8010608BF
:1004BC0008B5024B1B689B69019308BDC80106086F
:1004CC0008B5024B1B68DB69019308BDC80106081F
:1004DC0008B5024B1B681B6A019308BDC8010608CE
:1004EC0008B5024B1B681B6B019308BDC8010608BD
:1004FC0008B5024B1B685B6B019308BDC80106086D
:10050C0008B5024B1B681B6C019308BDC80106089B
:10051C0008B5024B1B685B6C019308BDC80106084B
:10052C0008B5024B1B689B68019308BDCC010608FB
:10053C0008B5024B1B685B69019308BDCC0106082A
:10054C0008B5024B1B681B6B019308BDCC01060858
:10055C0008B5024B1B68DB6B019308BDCC01060888
:10056C0008B5024B1B681B68019308BDA001060867
:10057C0008B5024B1B685B68019308BDA001060817
:10058C0008B5024B1B689B68019308BDA0010608C7
:10059C0008B5024B1B681B69019308BDA001060836
:1005AC0008B5024B1B689B69019308BDA0010608A6
:1005BC0008B5024B1B685B6A019308BDA0010608D5
:1005CC0008B5024B1B681B6B019308BDA001060804
:1005DC0008B5024B1B685B6C019308BDA0010608B3
:1005EC0070B5002604460D4640F8086FFFF7FAFD7B
:1005FC0028462570FFF780FE2046666070BD00001F
:10060C0002220020044B1A60044B054A18609880A3
:10061C0098719A60FFF7F0BEE8000020DC00002023
:10062C000000FFFF10B504460068FFF7A1FF20464D
:10063C0010BD10B50446006808B1FFF799FF002300
:10064C00C4E90133236010BD38B504460D4600687B
:10065C000131FFF795FF10B1C4E90005012038BD49
:10066C0010B50368044623B143688B4201D30120C3
:10067C0010BD2046FFF7E8FF0028F9D0A368002B37
:10068C00F5D122681370F2E770B50E461146044698
:10069C001546FFF7E5FF20B92046FFF7CAFF2046B5
:1006AC0070BD2A4631462068A56000F0F7FF002196
:1006BC002268A368D154F2E738B5002304460D46EE
:1006CC00C0E900338360037339B1084601F032F896
:1006DC00294602462046FFF7D7FF204638BDF8B51D
:1006EC0006460D4600248F18BD420CD033683046A8
:1006FC009B6815F8011B9847031E01DB1C44F3E7AC
:10070C00002C08BF1C462046F8BD70B505460C46AB
:10071C00084649B101F00EF82B68024621462846DE
:10072C00BDE87040DB68184770BD03689B681847CC
:10073C0038B50D210546FFF7F8FF0A210446284677
:10074C00FFF7F3FF204438BD0023012A98BF0A228B
:10075C0030B58BB00C468DF8243009A92546B4FB76
:10076C00F2F404FB1253DBB2092B94BF3033373352
:10077C00DBB2AA4201F8013DF0D9FFF7C6FF0BB07E
:10078C0030BD2DE9F04186B000AF05460E46381D50
:10079C00142114463B60FFF70BFF13280ED8284694
:1007AC00391DFFF7B2FF04461EB12846FFF7C0FF04
:1007BC00044420461837BD46BDE8F08100F108031B
:1007CC0023F00703E846ADEB030D2246411C3B68C2
:1007DC006846FFF7EDFE69462846FFF796FF04468C
:1007EC00C546E1E7002340681A461946FFF758BE94
:1007FC00014B024A1A607047EC00002090200A0856
:10080C0008B50020FFF79CFE28B1FFF791FE80F0A1
:10081C000100C0B208BD0120FCE7000030B5044661
:10082C00184893B0D0E90010521840EB0303164857
:10083C000025D0E90010521840EB0303CDE900234A
:10084C00242200210DEB020000F036FF09A96846B6
:10085C0000F02EFE1622294603A8029500F02CFF6C
:10086C0002A909A800F0F8FD02A800F063FF12AB82
:10087C00184400F8415C02A92046FFF71DFF2046F2
:10088C0013B030BD00010020F800002010B500208E
:10089C00FFF798FC0446A0B9FFF7A6FD012810D17C
:1008AC002046FFF7C1FD60B9FFF7AAFF10B9FFF7AB
:1008BC0037FEF9E7FFF7A4FFBDE810400020FFF773
:1008CC0081BC204610BD1FB5FFF7E0FF10220021B0
:1008DC00684600F0F1FE00216846FFF77BFC0098AB
:1008EC0005B05DF804FB0000024B1A68024B1A605D
:1008FC00704700BF04000020F00000200021FFF72B
:10090C0083BD10B50446FFF75FFD844208D01CB1CF
:10091C00BDE81040FFF748BDBDE81040FFF74CBDE7
:10092C0010BD70B505460E461446FFF74DFD50B18F
:10093C0044EA062444EA0540FFF72EFDBDE870406A
:10094C00E720FFF749BD70BD0022014B9A6070474C
:10095C0008010020014B1860704700BF0800002000
:10096C0008B5134B43B100F075F903681B69984740
:10097C00002801DDAFF300800E4B43B100F01AFAF2
:10098C0003681B699847002801DDAFF300800A4B10
:10099C000BB1AFF30080094B43B100F095F903683C
:1009AC001B699847002801DDAFF3008008BD00BF2C
:1009BC00000000000000000000000000000000002B
:1009CC0008B5FFF7CDFFFFF7F5FB014B186008BD2D
:1009DC00940500200548064A08B5121A054900F08E
:1009EC005DFE054B054A1A6008BD00BF0040024081
:1009FC0004400240E8230A08004002401E1C279ACB
:100A0C00002307B51A466FF077010093FFF71EFD20
:100A1C0003B05DF804FB000007B543880A2B08D02F
:100A2C00502B0BD1094B1B684BB103B05DF804EB99
:100A3C001847FFF7E5FF03B05DF804FB00231A46E7
:100A4C006FF077010093FFF701FDF4E71C01002024
:100A5C00002110B51148FFF7BBFD114B1A68114B63
:100A6C009A420CBF012200220F4B1A7001D0FFF7E3
:100A7C00B1FFFFF797FB044600F026FE0B4B13B1BA
:100A8C002046AFF3008000210848FFF761FDBDE868
:100A9C00104000210648FFF7CFBC00BF61090A08CF
:100AAC00004002401E1C279A180100200000000084
:100ABC00250A0A08704710B50446182100F064FB9B
:100ACC00204610BDF8B50E46002400F10807051DA0
:100ADC0017F8011D0A223046FFF736FEAF420444D8
:100AEC0001D12046F8BD002CF2D02E213046FFF764
:100AFC001CFE0444ECE7000010B50446044B112224
:100B0C00002140F8043B00F0D7FD204610BD00BF8B
:100B1C00B8200A080346074A10B543F8042B01F124
:100B2C00100251F8044B914243F8044BF9D10A7866
:100B3C001A7010BDB8200A08024AC0E9002104222C
:100B4C0002757047B8200A0810B59DF8084044EAB1
:100B5C000324042344EA024444EA01644460037518
:100B6C0010BD000037B5044D05609DF81850009578
:100B7C00FFF7EAFF03B030BDB8200A084174704794
:100B8C007047704708B50021007CFFF7E5FB40EA91
:100B9C00E07008BD08B50121007CFFF7DDFB40EAE1
:100BAC00E07008BD08B5007CFFF7CEFB20EAE070D2
:100BBC0008BD08B5007CFFF7BFFB20EAE07008BD5C
:100BCC0038B50446007C0D46FFF7BEFB002801DC5F
:100BDC00607C28B12946207CFFF7C6FB20EAE07038
:100BEC0038BD007CFFF7C8BB10B50446142100F0DB
:100BFC00CBFA204610BD704710B54FF47A730446FB
:100C0C0008460021C4E90113044B2074236001231E
:100C1C0011466374FFF780FB204610BDCC200A08F8
:100C2C000022007CFFF780BB10B504461422002183
:100C3C0000F042FD054B20466360054BE36040F23B
:100C4C00011323818123238210BD00BF500100209A
:100C5C005102002030B50E4D87B001A8FFF7E4FF1C
:100C6C002978BFF35B8F11F001040ED12846FFF7F2
:100C7C0010FA50B1214601AA0648FFF7BDFF2846DD
:100C8C00FFF70CFA044800F00DFC024807B030BD29
:100C9C0020010020280100208D0B0A0810B5044605
:100CAC001422002100F008FD054B20466360054B23
:100CBC00E36040F2011323818123238210BD00BF26
:100CCC00D2020020D303002010B50E4C86B001A830
:100CDC00FFF7E4FF2378BFF35B8FDB070ED42046CE
:100CEC00FFF7D7F950B1012101AA0748FFF784FF9C
:100CFC002046FFF7D3F9054800F0D4FB024806B0B4
:100D0C0010BD00BF240100203C010020030C0A0888
:100D1C00704741747047704708B5007CFFF7AAFA1A
:100D2C0020EAE07008BD08B5007CFFF77BFA20EAEA
:100D3C00E07008BD08B5007CFFF784FA40EAE0706B
:100D4C0008BD08B5007CFFF775FA40EAE07008BDF5
:100D5C00007CFFF77FBA70B5467C04460D462EB179
:100D6C002946207CBDE87040FFF754BA007CFFF7A1
:100D7C0081FA0028F4DC304670BD10B5044614210D
:100D8C0000F002FA204610BD4FF0000C10B50446DE
:100D9C00084611464FF47A72C4E901C2044A207421
:100DAC002260012262741A46FFF72CFA204610BD0D
:100DBC00FC200A0838B50C4D2978BFF35B8F11F075
:100DCC0001040FD12846FFF764F958B12146074BAF
:100DDC00074A0848FFF7D8FF2846FFF75FF906488F
:100DEC0000F060FB034838BD54040020DC040020F4
:100DFC005804002060050020230D0A087047F8B540
:100E0C00064615460C468F18BC4206D03368304651
:100E1C009B6814F8011B9847F6E72846F8BD00229A
:100E2C00007CFFF72FBA0021007CFFF733BA0021BA
:100E3C00007CFFF737BA0021007CFFF73BBA00219A
:100E4C00007CFFF73FBA10B50446142100F09CF962
:100E5C00204610BD10B54FF47A73044608460021A5
:100E6C00C4E90113034B114623602074FFF73AFACF
:100E7C00204610BD2C210A08002240681146FFF7BD
:100E8C0007BBF0B5154689B011220E460446002169
:100E9C0003A800F011FC284600F04CFC002781B29E
:100EAC0073682846009703AAFFF76EFA30B13946EB
:100EBC002046FFF741FE204609B0F0BD204603A9AD
:100ECC00FFF728FEF7E7002240681146FFF700BB4A
:100EDC00002240681146FFF70BBB00224068FFF769
:100EEC00FFBA0022406881F00101FFF7E9BA002344
:100EFC0040681A461946FFF7DBBA002240681146D3
:100F0C00FFF7B6BA002202214068FFF7B9BA0023F6
:100F1C0040681A46FFF7A4BA0422024B5A60024AF0
:100F2C001A6070477405002054210A080023406899
:100F3C001A46FFF795BA002202214068FFF7A0BAC3
:100F4C00002240681146FFF793BA00224068114610
:100F5C00FFF79EBA002340681A461946FFF7A0BA5D
:100F6C00002340681A461946FFF7A2BA00214068D0
:100F7C00FFF7C6BA00214068FFF7CABA00224068E2
:100F8C0081F00101FFF79CBA00224068FFF7A8BA74
:100F9C00002240681146FFF7ABBA002240681146A8
:100FAC00FFF796BA70B515468EB0044608A8FFF741
:100FBC00A3FD1122002103A800F07EFB0026284689
:100FCC0000F0B8FB0A4B009681B25B68284603AA76
:100FDC00FFF7DAF930B131462046FFF7ADFD204678
:100FEC000EB070BD204603A9FFF794FDF7E700BFD4
:100FFC0074050020024B034A1A6000225A607047A5
:10100C007C05002090210A08024B986808B1FFF774
:10101C00F1B8704788050020172870B5044601D92F
:10102C00002070BDA0F10D03022B0BD9012824D890
:10103C0000F086F80021007CFFF74CF980F00100ED
:10104C00C0B2EEE7124E3178BFF35B8F11F00105A1
:10105C000DD13046FFF71DF848B129460D48FFF772
:10106C00BFFA3046FFF71AF80B4800F01BFA094B91
:10107C001878FFF749F90028D2D1123C012C05D879
:10108C00FFF798FE007CFFF7EDF8D7E70120C8E7E3
:10109C00840500208805002015100A08172838B58B
:1010AC0004460D460AD8FF2908D0FFF7B5FF28B132
:1010BC0029462046BDE83840FFF75CB838BD38B546
:1010CC0004460D46FFF75EF8FF2810D0062804D81A
:1010DC004D2323FA00F0C30709D42046FFF79CFFE9
:1010EC0028B129462046BDE83840FFF753B838BD33
:1010FC00002307B51A46194600930348FFF732FD43
:10110C0003B05DF804FB00BF980500207047000099
:10111C00002370B5202543801423084E0446038019
:10112C00314685600561284600F030F83146606034
:10113C00284600F02BF8E060204670BDC4210A0858
:10114C0030B50E4D87B02978BFF35B8F11F00104D9
:10115C0011D12846FEF79DFF68B101A8FFF7D8FF13
:10116C00214601AA0648FFF775FE2846FEF796FFB2
:10117C00044800F097F9024807B030BDB0050020D4
:10118C00B405002019110A08FEF781BFFEF77DBFD8
:10119C002DE9F047089E0D4604468E46002B40F084
:1011AC0083808A42174647D9B2FA82F34BB1C3F116
:1011BC00200105FA03FE20FA01F19F4041EA0E0ED0
:1011CC009C404FEA1748BEFBF8FC1FFA87F908FB56
:1011DC001CE20CFB09F0210C41EA024290420AD9B4
:1011EC00BA180CF1FF3180F01881904240F2158151
:1011FC00ACF1020C3A44121AB2FBF8F008FB1022C4
:10120C0000FB09F1A4B244EA0244A14209D93C19F9
:10121C0000F1FF3280F00381A14240F200810238DC
:10122C003C44641A002140EA0C401EB10022DC4010
:10123C00C6E90042BDE8F08702B9FFDEB2FA82F3DC
:10124C00002B4FD18D1A01214FEA124E1FFA82F852
:10125C00B5FBFEFC0EFB1C5508FB0CF0220C42EA05
:10126C000545A84207D97D190CF1FF3202D2A842DC
:10127C0000F2E98094462D1AB5FBFEF00EFB1055DA
:10128C0008FB00F8A4B244EA0544A04507D93C1970
:10129C0000F1FF3202D2A04500F2D9801046A4EB37
:1012AC00080440EA0C40C0E78B4208D9002E00F03D
:1012BC00B1800021C6E900050846BDE8F087B3FA05
:1012CC0083F100294BD1AB4202D3824200F2B980A8
:1012DC00841A65EB030301209E46002EAAD0C6E9B2
:1012EC00004EA7E79F40C3F12002D1404FEA174EB2
:1012FC00B1FBFEF01FFA87F80EFB101124FA02F274
:10130C009D4000FB08FC2A43150C45EA0145AC4501
:10131C0004FA03F409D97D1900F1FF3180F08F80B4
:10132C00AC4540F28C8002383D44A5EB0C05B5FB76
:10133C00FEF10EFB115C01FB08F995B245EA0C4578
:10134C00A94507D97D1901F1FF3274D2A94572D98B
:10135C0002393D44A5EB090541EA004178E7C1F1AA
:10136C0020078B4022FA07FC4CEA030C25FA07F401
:10137C004FEA1C4EB4FBFEF91FFA8CF80EFB194415
:10138C0020FA07F309FB08FA8D401D432B0C43EAA6
:10139C000444A24502FA01F200FA01F309D91CEB4C
:1013AC00040409F1FF3048D2A24546D9A9F102093B
:1013BC006444A4EB0A04B4FBFEF00EFB104400FBE7
:1013CC0008FAADB245EA0444A24508D91CEB040462
:1013DC0000F1FF352DD2A2452BD90238644440EAE6
:1013EC000940A0FB0289A4EB0A044C45C6464D46B5
:1013FC0019D316D05EB1B3EB0E0264EB050404FAFC
:10140C0007F722FA01F31F43CC40C6E90074002110
:10141C00BDE8F087314630460CE78C46EBE61046CB
:10142C00FFE64345E6D2B8EB020E69EB0C0501383A
:10143C00E0E72846D3E711468CE78146B9E7084632
:10144C0073E7084649E7ACF1020C3D4413E7023858
:10145C003C4424E7704700BF10B50C46416986B088
:10146C0001F26C71036982690491016803EB430317
:10147C000391416802EB4202029181680191C168BB
:10148C002046009104490B4404490A440449FFF7DF
:10149C007FF8204606B010BDFA210A08E5210A089B
:1014AC00C5210A08002301461A46184600F01CBC48
:1014BC002DE9F0410C46074600F0BCFC2146804665
:1014CC00384600F0BBFC436904469A0703F26C767D
:1014DC0005D1642296FBF2F302FB13637BBB4FF442
:1014EC00C87396FBF3F503FB1565B5FA85F56D0925
:1014FC003022684B02FB053500F064FA00F06EFAFE
:10150C00654B1B6853B3D8F80430B34219D1D7E9F3
:10151C000067D8E90823D8F80010D1B9964277EBC8
:10152C00030323DAD8E91223964277EB0303B4BF03
:10153C000123002323621BDBD8F828101AE00125B5
:10154C00D6E7304600F096F90028E0D14FF0FF3393
:10155C0004E0964277EB030302DA00232362EBE705
:10156C00D8E91223964277EB0303F6DA01232362C0
:10157C00D8F850104FF4616391FBF3F63C2003FB59
:10158C00161393FBF0F200FB123061682368891A82
:10159C00A2681B1A921B3B2B23606160A26034DD96
:1015AC00013161603C3B236063683B2B33DD0132CE
:1015BC00A2603C3B6360A368172B32DDE269183BE9
:1015CC000132E261A269A3600132062AC8BF00227F
:1015DC00A261E26823690132E26055F823108A4265
:1015EC000EDD0B2BA2EB0102E26003F1010205BF41
:1015FC00002263692261013302BF22616361E261EF
:10160C0000F0E6F92046BDE8F081002BCCDA013978
:10161C0061603C33C7E7002BCDDA013AA2603C3362
:10162C00C8E7002BECDAE2691833013AE261A269EF
:10163C00A360013A48BF0622A261E268013AE26067
:10164C00002ADDD12369013B05D42361236955F8B8
:10165C002330E360D4E70B23236163695A1E626174
:10166C0003F26B72930705D1642192FBF1F301FB3A
:10167C00132363B94FF4C87192FBF1F301FB1323ED
:10168C00B3FA83F35B0903F5B673E361DEE7012379
:10169C00F9E700BF20220A08E40500200A44914221
:1016AC0000F1FF3300D1704710B511F8014B914296
:1016BC0003F8014FF9D110BD03460244934200D107
:1016CC00704703F8011BF9E738B50D4B04461D684C
:1016DC00AB6B7BB91820FEF743FF0A4A0A4BA86391
:1016EC00C0E90023094B012283600B238381002373
:1016FC00C0E904230022AB6B1C615A6138BD00BFEA
:10170C00080000200E33CDAB34126DE6ECDE050084
:10171C0010F8012B11F8013B012A28BF9A42F7D08F
:10172C00D01A7047034611F8012B03F8012B002A3D
:10173C00F9D17047034613F8012B002AFBD1181A74
:10174C000138704710B56AB10139841810F8013BA3
:10175C0011F8012F934203D1A04201D0002BF5D1F7
:10176C00981A10BD1046FCE72DE9F0438C468646CE
:10177C003A4E60461CF8014BA55D15F00805F8D1F2
:10178C002D2C34D14FF001089CF8004000F1020CD4
:10179C00002B5ED0102B0CD1302C0AD19CF8000001
:1017AC0000F0DF0058284FD110239CF801400CF1B9
:1017BC00020C4FF0FF37B7FBF3F7002503FB07F9DB
:1017CC0028466FEA0909A4F13006092E18D83446C8
:1017DC00A34224DD002D1FDB87421DD301D1A1457F
:1017EC001ADB012500FB03401CF8014BEBE72B2C0B
:1017FC0008BF9CF80040A84608BF00F1020CC7E7E0
:10180C00A4F14106192E01D8373CE1E7A4F1610699
:10181C00192E04D8573CDBE74FF0FF35E4E7002DD9
:10182C0007DA22234FF0FF30CEF8003042B9BDE882
:10183C00F083B8F1000F00D04042002AF7D00DB170
:10184C000CF1FF311160F2E73024002BB1D10823E9
:10185C00AFE7302CA2D00A23ABE700BFBD220A08A9
:10186C0013460A46014602480068FFF77DBF00BFD9
:10187C00080000202DE9F74F804600F0DBFA40F21B
:10188C00B173984540F397806FF4F66340F26D1294
:10189C0043449B10A8F2B27502FB05356FF063024E
:1018AC00A8F26D7393FBF2F36FF4C8621D444FF40E
:1018BC00C8734244B2FBF3F298FBF3F7154464226D
:1018CC0003FB178798FBF2F6B7FA87FC04464FF038
:1018DC00070E02FB168608F00303C0F804804FEADB
:1018EC005C1C00F1500B0093227A63694A2A28D1C0
:1018FC000099EA1801B906B90FBB3B2BD4BF0023E2
:10190C00012313445A1EA3692C49283401FB0232CB
:10191C00236813441A46DB1744E90223A345E3D199
:10192C00D0E90845D0E91223944275EB0303B4BF08
:10193C00012300230360012003B0BDE8F08F0023D6
:10194C00DFE7442A01D1EA18DDE7009A6ABB002ED2
:10195C000CBFE0464FF001084FF0300AE2684FF040
:10196C00000901922A4616490AFB0818A8F1040836
:10197C00019909F10109494558F829A017DC02F130
:10198C00040898FBFEF9C9EBC909A8EB0909B3EBEC
:10199C000909236948BF09F10709013BC3EBC303DC
:1019AC004B44534505DA1A44ADE7E046D4E75244BC
:1019BC00DEE7073BF5E70020BEE700BF80510100E2
:1019CC0020220A08014800F0E9BA00BF870600206F
:1019DC00014800F0E5BA00BF87060020014B1868EB
:1019EC0000F002B8080000202DE9F04F8DB007463A
:1019FC0000F020FAB0490546384600F013FAAF4E15
:101A0C00044670B9AE4BAF4A1860AF4B1860AF4B81
:101A1C003068C3E90022FEF7ABFD34600DB0BDE8C1
:101A2C00F08F316800295FD13068FEF7A1FD2046A8
:101A3C00FFF780FE411C3846FEF7C2FD30600028DF
:101A4C0057D123780AAE3A2B08BF013433462046CF
:101A5C009F4AA049FEF7A4FD0028DFDD0A9BE7188A
:101A6C00E35C2D2B49D14FF0FF3401374FF00008C8
:101A7C000DF1200A0DF11E0B33463846CDE9016AF3
:101A8C0095490396CDF800B007AAADF81E80ADF8C5
:101A9C002080FEF785FD4045C0DD3C21BDF81E30A1
:101AAC00BDF82020DFF83C9201FB03224FF461616A
:101ABC00BDF81C3001FB03235C43854BAC62834CAB
:101ACC004A4623600A9B83491F4438463346FEF737
:101ADC0067FD404517DC2368AA6A6360784B1A607F
:101AEC00794BC3F8008099E7FFF712FE00289BD1D1
:101AFC0094E72146FFF716FEA3E72B2B4FF00104CA
:101B0C0008BF0137B2E70A9BC4F80490FC18FB5CD1
:101B1C002D2B40F08C804FF0FF37013400232046F2
:101B2C00ADF81C30ADF81E30ADF820300A93CDE97D
:101B3C0002A63346CDE900B6674907AAFEF730FD89
:101B4C0000287ADCAF6AA7F561672F654FF00009B2
:101B5C002F460A9B1C4423782C2B08BF013494F885
:101B6C000080B8F14D0F7AD10DF12603CDE9016358
:101B7C0009AB009320463346584903960DF12202D7
:101B8C00FEF70EFD03287FF449AFBDF822104B1E63
:101B9C000B2B3FF643AFBDF82420531E042B3FF60E
:101BAC003DAFBDF82630062B3FF638AFC7E9031220
:101BBC0087F808807B610A9B04EB03080223ADF8CD
:101BCC001C300023ADF81E30ADF820300A9398F885
:101BDC0000302F2B09D133464046CDE902A6CDE982
:101BEC0000B63F4907AAFEF7DBFC3C21BDF81E30CE
:101BFC00BDF82020283701FB03224FF46161BDF8AA
:101C0C001C3001FB032347F8103C0A9C4444B9F1F7
:101C1C00000F21D06868FFF72DFEAA6A284B1A60C6
:101C2C002B6D9B1A18BF0123274A1360F6E62B2B4A
:101C3C004FF0010708BF013470E73C21BDF81E309E
:101C4C00BDF8202001FB03224FF46161BDF81C306C
:101C5C0001FB03235F4378E74FF001097BE7B8F101
:101C6C004A0F0ABF4346442301340A2220460BA9DB
:101C7C000593FFF7F5FDDDF82C80059BA045ADF82D
:101C8C00260014D14D23B9F1000F07D103212B727B
:101C9C000223C5F81490C5E903138FE70B2285F8CE
:101CAC0030300123C5E90D230023EB6386E780B2B6
:101CBC003B72786182E700BF80220A08E0050020B1
:101CCC00E805002083220A08E40500206C000020AF
:101CDC00D305002087220A08AA220A0896220A089D
:101CEC00A9220A08C80500202DE9F843DFF8BC80BA
:101CFC000646D8F800001F460D46914600F04FF9F5
:101D0C00264B1C6834B9264C1C60264B13B11B683F
:101D1C00C4F8883063681F2B07DDD8F8000000F08A
:101D2C0040F94FF0FF30BDE8F8835EB3D4F888007B
:101D3C0088B91D4B23B9D8F8000000F031F9F0E751
:101D4C004FF48470FEF70CFC0028F4D00023C0E99B
:101D5C004033C4F8880001226368022E40F82390B7
:101D6C0002FA03F200EB8301D0F8003143EA0203DC
:101D7C00C0F80031C1F8807002BFD0F804311A43AA
:101D8C00C0F804216368D8F800005A1C0233626062
:101D9C0044F8235000F005F90020C4E77806002031
:101DAC00EC050020000000006D050A0874000020FE
:101DBC002DE9F84F07468946164600F0F3F8184B04
:101DCC001C689A4634B14B46984613F8011B39B13E
:101DDC003D29F9D1384600F0EBF80020BDE8F88F2A
:101DEC00A8EB0908A34654F8040B0028F2D042468D
:101DFC004946FFF7A7FC0028F4D154F8043C03EB48
:101E0C00080513F808303D2BECD1DAF800303846D1
:101E1C00ABEB03039B10336000F0CAF8681CDDE7E2
:101E2C00D000002007B501AAFFF7C2FF03B05DF890
:101E3C0004FB000000487047780000202DE9F041B9
:101E4C00D0E900670C460023304639464F4A00F073
:101E5C00B5F839460546002330464C4A00F0AEF83A
:101E6C004FF46161002ABCBF02F5A83202F5C072C2
:101E7C00B2FBF1F301FB13224FF03C01A360B2FB68
:101E8C00F1F301FB132222604FF0070205F52F201E
:101E9C00ACBF00F66C2000F66B206360C31C93FB98
:101EAC00F2F2C2EBC2029B1A48BF07330028384932
:101EBC00A361BDBFA0F50E33A3F52C7393FBF1F119
:101ECC0090FBF1F148F6AC6240F2B45C314B40F25D
:101EDC006D1703FB0100B0FBF2F2B0FBFCF3024404
:101EEC00D21A2D4B6426B0FBF3F3D31AB3FBF7F5E0
:101EFC00B3FBFCF3B5FBF6F2D31A0344992007FBB2
:101F0C00153303EB830C0CF1020CBCFBF0F74FF018
:101F1C00050878430230B0FBF8F003F1010EAEEB8C
:101F2C00000040F2F95EF44594BF4FF0020C6FF0E4
:101F3C00090C67444FF4C87C0CFB0151012F98BF6E
:101F4C000131B3F5997F0CD3A3F59973E3610023A9
:101F5C00A1F26C71E060C4E9047120462362BDE813
:101F6C00F08115F0030F02D106FB12525AB94FF44F
:101F7C00C876B5FBF6F206FB1252B2FA82F252099F
:101F8C003B331344E2E70122FAE700BF8051010022
:101F9C00B13A02004FC5FDFFB03A020070477047DE
:101FAC00704770470148FFF7FABF00BF8606002054
:101FBC000148FFF7F6BF00BF860600207BB972B957
:101FCC000029BEBF00204FF0004106E008BF0028EA
:101FDC001CBF6FF000414FF0FF30FFF73BBAADF183
:101FEC00080C6DE904CE002909DB002B1ADBFFF786
:101FFC00CFF8DDF804E0DDE9022304B0704740427D
:10200C0061EB4101002B1BDBFFF7C2F8DDF804E0AC
:10201C00DDE9022304B0404261EB4101524263EB23
:10202C0043037047524263EB4303FFF7B1F8DDF80B
:10203C0004E0DDE9022304B0404261EB410170474A
:10204C00524263EB4303FFF7A3F8DDF804E0DDE94C
:10205C00022304B0524263EB430370471D000A088D
:10206C005D000A0885000A0889000A0800000000C3
:10207C007B2274223A25642C22737472223A222514
:10208C0073227D006170700025592D256D2D2564FE
:10209C005425483A254D3A2553257A0061736374CB
:1020AC00696D65000000000000000000D10A0A08FC
:1020BC00C10A0A08C30A0A08000000000000000058
:1020CC008F0B0A08F50B0A08CD0B0A08EB060A0859
:1020DC00BF0B0A08910B0A08A10B0A08EF0B0A08A0
:1020EC00B10B0A08890B0A08000000000000000070
:1020FC001D0D0A08870D0A08630D0A08EB060A086D
:10210C00330D0A084F0D0A08410D0A085D0D0A0827
:10211C001F0D0A08250D0A08000000000000000031
:10212C00090E0A08530E0A082B0E0A080B0E0A0891
:10213C00330E0A083B0E0A08430E0A084B0E0A0817
:10214C0000000000000000001B0F0A08110F0A0815
:10215C00070F0A08850E0A08F1070A08FB0E0A0881
:10216C00790F0A08810F0A08EF0E0A08E70E0A0811
:10217C00DD0E0A08D30E0A088F0E0A0800000000B4
:10218C0000000000390F0A08430F0A084D0F0A0817
:10219C00570F0A08610F0A086D0F0A08790F0A0811
:1021AC00810F0A08890F0A08950F0A089D0F0A0863
:1021BC00A70F0A08B10F0A0800252E337320252E0D
:1021CC00337325336420252E32643A252E32643A3B
:1021DC00252E32642025640A0053756E4D6F6E54A3
:1021EC0075655765645468754672695361744A61C4
:1021FC006E4665624D61724170724D61794A756EC1
:10220C004A756C4175675365704F63744E6F7644B5
:10221C00656300001F0000001C0000001F00000090
:10222C001E0000001F0000001E0000001F00000028
:10223C001F0000001E0000001F0000001E00000018
:10224C001F0000001F0000001D0000001F00000008
:10225C001E0000001F0000001E0000001F000000F8
:10226C001F0000001E0000001F0000001E000000E8
:10227C001F000000545A00474D54002531305B5E5E
:10228C00302D392C2B2D5D256E004D256875256E56
:10229C002E256875256E2E256875256E002F2568F0
:1022AC0075256E3A256875256E3A256875256E007C
:1022BC00002020202020202020202828282828200A
:1022CC002020202020202020202020202020202002
:1022DC00208810101010101010101010101010106A
:1022EC00100404040404040404040410101010105A
:1022FC001010414141414141010101010101010124
:10230C000101010101010101010101011010101075
:10231C0010104242424242420202020202020202F5
:10232C000202020202020202020202021010101049
:10233C002000000000000000000000000000000071
:10234C000000000000000000000000000000000081
:10235C000000000000000000000000000000000071
:10236C000000000000000000000000000000000061
:10237C000000000000000000000000000000000051
:10238C000000000000000000000000000000000041
:10239C000000000000000000000000000000000031
:1023AC000000000000000000000000000000000021
:1023BC000000000079010A080D060A08FD070A084A
:1023CC00F5080A0855090A08250F0A0801100A0819
:0423DC00FD100A08DE
:0823E000BCEDFF7F01000000CD
:0423E80000000000F1
:1023EC0007000000A8200A080C00002000000000D4
:1023FC0000000000000000000000000000000000D1
:10240C0000000000000000000000000000000000C0
:10241C0000000000000000000000000000000000B0
:10242C0000000000000000000000000000000000A0
:10243C000000000000000000000000000000000090
:10244C0000000000000000000000000083220A08C9
:10245C0083220A0881060020010000000000000011
:10246C004A00000000000000000000000000000016
:10247C000000000000000000000000000000000050
:10248C0000000000000000004A00000000000000F6
:10249C000000000000000000000000000000000030
:1024AC000000000000000000000000000000000020
:0424BC007C0600207A
:1024C000FFFFFFFF00000102030405060708090AD9
:1024D0000B0C0D0E0F101112131415161718191AD4
:0824E0001B1C1D1E1F2028001B
:0424E80078563412DC
:04000005080A001CC9
:00000001FF
